:100000000C942A000C943C000C943C000C943C0092
:100010000C943C000C943C000C943C000C943C0070
:100020000C943C000C943C000C943C000C943C0060
:100030000C943C000C943C000C943C000C943C0050
:100040000C943C000C943C000C943C000C943C0040
:100050000C943C0011241FBECFE5D8E0DEBFCDBF1D
:1000600010E0A0E6B0E001C01D92A736B107E1F7AD
:100070000E94BB010C946D040C9400001ABA87B363
:1000800087BB089584B3836C84BB81B3806F81BBCD
:10009000089580B320B390B380FF02C081E6089535
:1000A00021FF02C082E6089592FD83E60895CF9273
:1000B000DF92EF92FF920F931F93CF93DF9389B359
:1000C00099B329B339B349B359B3C9B2F9B280FD71
:1000D00003C0C0E0D0E002C0C2E3D0E091FD03C0A5
:1000E00000E010E002C00EE110E022FD03C0A0E03D
:1000F000B0E002C0AFE0B0E033FD03C0E0E0F0E00C
:1001000002C0EAE0F0E044FD03C060E070E002C03D
:1001100066EF7FEF55FD03C040E050E002C041EFC5
:100120005FEFC6FC03C020E030E002C022EE3FEFEC
:10013000F7FC03C080E090E002C08EEC9FEF0C0F54
:100140001D1F0A0F1B1F0E0F1F1F060F171F040F67
:10015000151F020F131F080F191FB801882777FDFD
:100160008095982F0E947E036B017C018091640032
:1001700090916500B801681B790B882777FD809501
:10018000982F0E947E0320E030E040E05FE30E9471
:100190000A049B01AC01C701B6010E94E7020E945C
:1001A0004B031093650000936400CB01DF91CF9166
:1001B0001F910F91FF90EF90DF90CF90089589E607
:1001C00083BFBB9A85BD8F9A08950F931F93CF93DA
:1001D000DF93EC018B010E94DF001C161D0654F416
:1001E000A89AA998CE01CF3FD10571F06CF08FEF9E
:1001F00090E00AC0A99AA898CE012FEFC130D2078B
:1002000014F481E09FEF81958CBF101611065CF409
:10021000AE9AAF98B8010F3F110519F014F06FEFC7
:1002200070E063BD0CC0AF9AAE98B8018FEF01309B
:10023000180714F461E07FEF862F819583BDDF916D
:10024000CF911F910F91089526B330E02170307047
:10025000C901089526B330E020743070C9010895B3
:1002600026B330E03695279521703070C901089586
:1002700026B330E094E0369527959A95E1F7217002
:100280003070C901089585B38C7385BB08950F93B1
:100290001F9306B316B386B386B30E94570016FFAA
:1002A00010C086E990E06AE67FEF0E94E50084EFE7
:1002B00091E028EC30E0F9013197F1F70197D9F797
:1002C0000EC004FD04C085B38C7385BB08C06EEB03
:1002D00070E0681B790B82549F4F0E94E5001F91CC
:1002E0000F910895FF920F931F93CF93DF9316B34F
:1002F00086B3F6B206B30E94570014FD16C0C0E0E4
:10030000D0E008EC10E08AE69FEF66E970E00E941A
:10031000E5008EE591E0F8013197F1F70197D9F703
:100320002196CA30D10579F720C000FF10C08AE6B7
:100330009FEF66E970E00E94E50080E991E028EC1B
:1003400030E0F9013197F1F70197D9F70EC0F1FCD0
:1003500004C085B38C7385BB08C06EEB70E0681B6E
:10036000790B82549F4F0E94E500DF91CF911F913E
:100370000F91FF9008951ABA87B387BB84B3836C3B
:1003800084BB81B3806F81BB0E944900809366006B
:10039000883761F0813619F40E944701F5CF823623
:1003A00019F40E947201F0CF863671F785B38C7311
:1003B00085BBEACF0F931F93CF93DF9386B3082FAC
:1003C00010E024E0169507952A95E1F7017010706A
:1003D00086B3C82FD0E0C074D0700E94570020911F
:1003E00060003091610021153105E9F4CD2B81F1D8
:1003F000012BA1F186E990E066E970E00E94E5003A
:1004000080E991E028EC30E0F9013197F1F70197AC
:10041000D9F78091600090916100019690936100FE
:100420008093600023C01216130694F4CD2B81F044
:100430008AEF90E066E07FEF0E94E50088E592E0B9
:1004400028EC30E0F9013197F1F70197D9F70EC0A8
:10045000012B21F085B38C7385BB08C066E970E081
:10046000681B790B8A569F4F0E94E500DF91CF9160
:100470001F910F9108950F931F93CF93DF9386B32E
:10048000C82FD0E034E0D695C7953A95E1F7C17012
:10049000D07086B3082F10E0007410700E945700CF
:1004A000209162003091630021153105A9F40115F6
:1004B000110591F0209781F086E990E066E970E0FF
:1004C0000E94E50080E991E028EC30E0F9013197E5
:1004D000F1F70197D9F717C021303105F1F4011573
:1004E0001105D9F02097C9F086E990E066E970E03F
:1004F0000E94E50080E991E028EC30E0F9013197B5
:10050000F1F70197D9F7809162009091630001960D
:10051000909363008093620027C022303105B1F4CC
:10052000012BA1F02FEF803B920784F086E09FEF34
:100530006AEF70E00E94E50080E991E028EC30E08D
:10054000F9013197F1F70197D9F70EC0CD2B21F0C2
:1005500085B38C7385BB08C066E970E0681B790BB6
:100560008A569F4F0E94E500DF91CF911F910F9116
:1005700008950F931F9306B316B30E94570016FFFA
:1005800014C02FEF813B920784F486E990E066E97E
:1005900070E00E94E50080E991E028EC30E0F9018C
:1005A0003197F1F70197D9F70EC004FF04C085B366
:1005B0008C7385BB08C066E970E0681B790B8A56AE
:1005C0009F4F0E94E5001F910F9108955058BB273F
:1005D000AA270ED0E5C0D6D030F0DBD020F031F421
:1005E0009F3F11F41EF4CBC00EF4E095E7FBC1C0B1
:1005F000E92FE7D080F3BA176207730784079507DE
:1006000018F071F49EF5FFC00EF4E0950B2EBA2F92
:10061000A02D0B01B90190010C01CA01A001112408
:10062000FF27591B99F0593F50F4503E68F11A16B4
:10063000F040A22F232F342F4427585FF3CF469545
:1006400037952795A795F0405395C9F77EF41F1667
:10065000BA0B620B730B840BBAF09150A1F0FF0F31
:10066000BB1F661F771F881FC2F70EC0BA0F621F1D
:10067000731F841F48F4879577956795B795F7950D
:100680009E3F08F0B3CF9395880F08F09927EE0F9F
:1006900097958795089504D06894B111B5C00895D1
:1006A00098D088F09F5790F0B92F9927B751A0F0B4
:1006B000D1F0660F771F881F991F1AF0BA95C9F7F6
:1006C00012C0B13081F09FD0B1E008959CC0672F77
:1006D000782F8827B85F39F0B93FCCF386957795A6
:1006E0006795B395D9F73EF490958095709561958F
:1006F0007F4F8F4F9F4F0895E89409C097FB3EF4BA
:1007000090958095709561957F4F8F4F9F4F99235E
:10071000A9F0F92F96E9BB279395F69587957795DC
:100720006795B795F111F8CFFAF4BB0F11F460FF9C
:100730001BC06F5F7F4F8F4F9F4F16C0882311F0F4
:1007400096E911C0772321F09EE8872F762F05C008
:10075000662371F096E8862F70E060E02AF09A95A3
:10076000660F771F881FDAF7880F9695879597F998
:10077000089597F99F6780E870E060E008959FEF23
:1007800080EC089500240A94161617061806090628
:10079000089500240A9412161306140605060895F7
:1007A000092E0394000C11F4882352F0BB0F40F47F
:1007B000BF2B11F460FF04C06F5F7F4F8F4F9F4FBF
:1007C000089557FD9058440F551F59F05F3F71F041
:1007D0004795880F97FB991F61F09F3F79F08795A8
:1007E0000895121613061406551FF2CF4695F1DF31
:1007F00008C0161617061806991FF1CF86957105C1
:10080000610508940895E894BB2766277727CB01F4
:1008100097F908950BD0C4CFB5DF28F0BADF18F0F0
:10082000952309F0A6CFABCF1124EECFCADFA0F3FA
:10083000959FD1F3950F50E0551F629FF001729F75
:10084000BB27F00DB11D639FAA27F00DB11DAA1F94
:10085000649F6627B00DA11D661F829F2227B00DE1
:10086000A11D621F739FB00DA11D621F839FA00D6C
:10087000611D221F749F3327A00D611D231F849FBC
:10088000600D211D822F762F6A2F11249F57504013
:100890008AF0E1F088234AF0EE0FFF1FBB1F661FAE
:1008A000771F881F91505040A9F79E3F510570F067
:1008B00060CFAACF5F3FECF3983EDCF38695779547
:1008C0006795B795F795E7959F5FC1F7FE2B880F62
:0E08D000911D9695879597F90895F894FFCF9E
:00000001FF
